{
  "address": "0x9E3421298D5c30c9Ad102aabA90F3Cc7FF22EE31",
  "abi": [
    {
      "anonymous": false,
      "inputs": [
        {
          "indexed": true,
          "internalType": "address",
          "name": "user",
          "type": "address"
        },
        {
          "indexed": false,
          "internalType": "uint256",
          "name": "amount",
          "type": "uint256"
        }
      ],
      "name": "Deposited",
      "type": "event"
    },
    {
      "anonymous": false,
      "inputs": [
        {
          "indexed": true,
          "internalType": "address",
          "name": "user",
          "type": "address"
        },
        {
          "indexed": false,
          "internalType": "uint256",
          "name": "amount",
          "type": "uint256"
        }
      ],
      "name": "Withdrawn",
      "type": "event"
    },
    {
      "inputs": [
        {
          "internalType": "address",
          "name": "",
          "type": "address"
        }
      ],
      "name": "balances",
      "outputs": [
        {
          "internalType": "uint256",
          "name": "",
          "type": "uint256"
        }
      ],
      "stateMutability": "view",
      "type": "function"
    },
    {
      "inputs": [],
      "name": "deposit",
      "outputs": [],
      "stateMutability": "payable",
      "type": "function"
    },
    {
      "inputs": [],
      "name": "getBankBalance",
      "outputs": [
        {
          "internalType": "uint256",
          "name": "",
          "type": "uint256"
        }
      ],
      "stateMutability": "view",
      "type": "function"
    },
    {
      "inputs": [],
      "name": "withdraw",
      "outputs": [],
      "stateMutability": "nonpayable",
      "type": "function"
    }
  ],
  "transactionHash": "0x41c2beda78ef872277975e68693b81ba633e2f9b8b6e73739936eccf2570e4f4",
  "args": [],
  "numDeployments": 2,
  "solcInputHash": "20817d6b5aac4085aa2bdbb0c440a3e0",
  "bytecode": "0x6080604052348015600f57600080fd5b506102fe8061001f6000396000f3fe60806040526004361061003f5760003560e01c806327e235e3146100445780633ccfd60b146100835780637b83b50b1461009a578063d0e30db0146100ad575b600080fd5b34801561005057600080fd5b5061007161005f366004610271565b60006020819052908152604090205481565b60405190815260200160405180910390f35b34801561008f57600080fd5b506100986100b5565b005b3480156100a657600080fd5b5047610071565b6100986101d6565b33600090815260208190526040902054806101045760405162461bcd60e51b815260206004820152600a6024820152694e6f2062616c616e636560b01b60448201526064015b60405180910390fd5b604051600090339083908381818185875af1925050503d8060008114610146576040519150601f19603f3d011682016040523d82523d6000602084013e61014b565b606091505b505090508061018e5760405162461bcd60e51b815260206004820152600f60248201526e151c985b9cd9995c8819985a5b1959608a1b60448201526064016100fb565b336000818152602081815260408083209290925590518481527f7084f5476618d8e60b11ef0d7d3f06914655adb8793e28ff7f018d4c76d505d5910160405180910390a25050565b600034116102165760405162461bcd60e51b815260206004820152600d60248201526c09aeae6e840e6cadcc8408aa89609b1b60448201526064016100fb565b33600090815260208190526040812080543492906102359084906102a1565b909155505060405134815233907f2da466a7b24304f47e87fa2e1e5a81b9831ce54fec19055ce277ca2f39ba42c49060200160405180910390a2565b60006020828403121561028357600080fd5b81356001600160a01b038116811461029a57600080fd5b9392505050565b808201808211156102c257634e487b7160e01b600052601160045260246000fd5b9291505056fea2646970667358221220944a435b702310ae3192417ce8651f478b5f7cd665e6dc7862204942e8c7d97c64736f6c634300081e0033",
  "devdoc": {
    "kind": "dev",
    "methods": {},
    "version": 1
  },
  "userdoc": {
    "kind": "user",
    "methods": {},
    "version": 1
  },
  "storageLayout": {
    "storage": [
      {
        "astId": 748,
        "contract": "contracts/uploaded/VulnerableBank.sol:VulnerableBank",
        "label": "balances",
        "offset": 0,
        "slot": "0",
        "type": "t_mapping(t_address,t_uint256)"
      }
    ],
    "types": {
      "t_address": {
        "encoding": "inplace",
        "label": "address",
        "numberOfBytes": "20"
      },
      "t_mapping(t_address,t_uint256)": {
        "encoding": "mapping",
        "key": "t_address",
        "label": "mapping(address => uint256)",
        "numberOfBytes": "32",
        "value": "t_uint256"
      },
      "t_uint256": {
        "encoding": "inplace",
        "label": "uint256",
        "numberOfBytes": "32"
      }
    }
  }
}